{
  "transactions": [
    {
      "hash": "0x197c4ea9f83b8f6badba1a4c3aac77f299e619d0a2ca9a89f9aa2428789052e0",
      "transactionType": "CREATE",
      "contractName": "TokenManagementFacet",
      "contractAddress": "0x06C340Fb15c7B484F89952A6824f41D8e7F6e6b1",
      "function": null,
      "arguments": null,
      "transaction": {
        "from": "0xa748409456180ccb70FA34e8ee276297B9A2a1cC",
        "gas": "0xa766a",
        "value": "0x0",
        "input": "0x6080604052348015600f57600080fd5b506108948061001f6000396000f3fe608060405234801561001057600080fd5b50600436106100575760003560e01c80636d69fcaf1461005c57806375151b631461008457806376319190146100b0578063d3c7c2c7146100c3578063fc0c546a146100d8575b600080fd5b61006f61006a366004610636565b610103565b60405190151581526020015b60405180910390f35b61006f610092366004610636565b6001600160a01b031660009081526018602052604090205460ff1690565b61006f6100be366004610636565b6103b8565b6100cb61057a565b60405161007b9190610666565b6021546100eb906001600160a01b031681565b6040516001600160a01b03909116815260200161007b565b600061010d6105df565b6001600160a01b0382166101345760405163287170f960e01b815260040160405180910390fd5b6001600160a01b03821660009081526018602052604090205460ff161561016e5760405163c78e82ad60e01b815260040160405180910390fd5b602160009054906101000a90046001600160a01b03166001600160a01b03166318160ddd6040518163ffffffff1660e01b8152600401602060405180830381865afa9250505080156101dd575060408051601f3d908101601f191682019092526101da918101906106b2565b60015b6101fa576040516326412d8960e21b815260040160405180910390fd5b6001600160a01b038316600081815260186020526040808220805460ff1916600190811790915560198054918201815583527f944998273e477b495144fb8794c914197f3ccb46be2900f4698fd0ef743c96950180546001600160a01b0319168417905580516306fdde0360e01b81529051606093849390926306fdde0392600480830193928290030181865afa9250505080156102ba57506040513d6000823e601f3d908101601f191682016040526102b79190810190610705565b60015b6102e157604051806040016040528060038152602001623f3f3f60e81b81525091506102e4565b91505b846001600160a01b03166395d89b416040518163ffffffff1660e01b8152600401600060405180830381865afa92505050801561034357506040513d6000823e601f3d908101601f191682016040526103409190810190610705565b60015b61036757506040805180820190915260038152623f3f3f60e81b602082015261036a565b90505b846001600160a01b03167f2fb34ce114a136590b874d8cf80e7652adda576578bacfa4f8023f720f56939483836040516103a59291906107e6565b60405180910390a2506001949350505050565b60006103c26105df565b6001600160a01b0382166103e95760405163287170f960e01b815260040160405180910390fd5b6001600160a01b03821660009081526018602052604090205460ff1615610561576001600160a01b0382166000908152601860205260408120805460ff191690555b60195481101561052457826001600160a01b0316600060190182815481106104555761045561080b565b6000918252602090912001546001600160a01b03160361051c576019805461047f90600190610821565b8154811061048f5761048f61080b565b600091825260209091200154601980546001600160a01b0390921691839081106104bb576104bb61080b565b600091825260209091200180546001600160a01b0319166001600160a01b039290921691909117905560198054806104f5576104f5610848565b600082815260209020810160001990810180546001600160a01b0319169055019055610524565b60010161042b565b506040516001600160a01b038316907f4c910b69fe65a61f7531b9c5042b2329ca7179c77290aa7e2eb3afa3c8511fd390600090a2506001919050565b604051633dd1b30560e01b815260040160405180910390fd5b606060006019018054806020026020016040519081016040528092919081815260200182805480156105d557602002820191906000526020600020905b81546001600160a01b031681526001909101906020018083116105b7575b5050505050905090565b6105e76105e9565b565b7fc8fcad8db84d3cc18b4c41d551ea0ee66dd599cde068d998e57d5e09332c131c600401546001600160a01b031633146105e757604051630305808160e41b815260040160405180910390fd5b60006020828403121561064857600080fd5b81356001600160a01b038116811461065f57600080fd5b9392505050565b602080825282518282018190526000918401906040840190835b818110156106a75783516001600160a01b0316835260209384019390920191600101610680565b509095945050505050565b6000602082840312156106c457600080fd5b5051919050565b634e487b7160e01b600052604160045260246000fd5b60005b838110156106fc5781810151838201526020016106e4565b50506000910152565b60006020828403121561071757600080fd5b815167ffffffffffffffff81111561072e57600080fd5b8201601f8101841361073f57600080fd5b805167ffffffffffffffff811115610759576107596106cb565b604051601f8201601f19908116603f0116810167ffffffffffffffff81118282101715610788576107886106cb565b6040528181528282016020018610156107a057600080fd5b6107b18260208301602086016106e1565b95945050505050565b600081518084526107d28160208601602086016106e1565b601f01601f19169290920160200192915050565b6040815260006107f960408301856107ba565b82810360208401526107b181856107ba565b634e487b7160e01b600052603260045260246000fd5b8181038181111561084257634e487b7160e01b600052601160045260246000fd5b92915050565b634e487b7160e01b600052603160045260246000fdfea2646970667358221220d1bde3f23595b156834a54928cbf231296e1555d2eb9051c7d6fcf226f899b2864736f6c634300081a0033",
        "nonce": "0x103",
        "chainId": "0x14a34"
      },
      "additionalContracts": [],
      "isFixedGasLimit": false
    },
    {
      "hash": "0xe58b05d798eef34ea72e654af9d05cc9110ab11784fce3b465dd83fd6f440a0e",
      "transactionType": "CALL",
      "contractName": null,
      "contractAddress": "0xa2fA83BF540697111420ef9EA3A419D93c8ae44E",
      "function": "diamondCut((address,uint8,bytes4[])[],address,bytes)",
      "arguments": [
        "[(0x06C340Fb15c7B484F89952A6824f41D8e7F6e6b1, 1, [0x6d69fcaf, 0x76319190, 0x75151b63, 0xd3c7c2c7])]",
        "0x0000000000000000000000000000000000000000",
        "0x"
      ],
      "transaction": {
        "from": "0xa748409456180ccb70FA34e8ee276297B9A2a1cC",
        "to": "0xa2fA83BF540697111420ef9EA3A419D93c8ae44E",
        "gas": "0x34862",
        "value": "0x0",
        "input": "0x1f931c1c0000000000000000000000000000000000000000000000000000000000000060000000000000000000000000000000000000000000000000000000000000000000000000000000000000000000000000000000000000000000000000000001a00000000000000000000000000000000000000000000000000000000000000001000000000000000000000000000000000000000000000000000000000000002000000000000000000000000006c340fb15c7b484f89952a6824f41d8e7f6e6b10000000000000000000000000000000000000000000000000000000000000001000000000000000000000000000000000000000000000000000000000000006000000000000000000000000000000000000000000000000000000000000000046d69fcaf00000000000000000000000000000000000000000000000000000000763191900000000000000000000000000000000000000000000000000000000075151b6300000000000000000000000000000000000000000000000000000000d3c7c2c7000000000000000000000000000000000000000000000000000000000000000000000000000000000000000000000000000000000000000000000000",
        "nonce": "0x104",
        "chainId": "0x14a34"
      },
      "additionalContracts": [],
      "isFixedGasLimit": false
    }
  ],
  "receipts": [
    {
      "status": "0x1",
      "cumulativeGasUsed": "0xaf5b95",
      "logs": [],
      "logsBloom": "0x00000000000000000000000000000000000000000000000000000000000000000000000000000000000000000000000000000000000000000000000000000000000000000000000000000000000000000000000000000000000000000000000000000000000000000000000000000000000000000000000000000000000000000000000000000000000000000000000000000000000000000000000000000000000000000000000000000000000000000000000000000000000000000000000000000000000000000000000000000000000000000000000000000000000000000000000000000000000000000000000000000000000000000000000000000000",
      "type": "0x2",
      "transactionHash": "0x197c4ea9f83b8f6badba1a4c3aac77f299e619d0a2ca9a89f9aa2428789052e0",
      "transactionIndex": "0x34",
      "blockHash": "0x57d48e9f5d886e0165d50d44f4cf62a45ca3071e4a592b33f48aa3967e491ef5",
      "blockNumber": "0x1755ecc",
      "gasUsed": "0x80cde",
      "effectiveGasPrice": "0x190ad",
      "from": "0xa748409456180ccb70FA34e8ee276297B9A2a1cC",
      "to": null,
      "contractAddress": "0x06C340Fb15c7B484F89952A6824f41D8e7F6e6b1",
      "l1BaseFeeScalar": "0x44d",
      "l1BlobBaseFee": "0xf44",
      "l1BlobBaseFeeScalar": "0xa118b",
      "l1Fee": "0x191bf32d",
      "l1GasPrice": "0x1007ab9",
      "l1GasUsed": "0x5826"
    },
    {
      "status": "0x1",
      "cumulativeGasUsed": "0xc72326",
      "logs": [
        {
          "address": "0xa2fA83BF540697111420ef9EA3A419D93c8ae44E",
          "topics": [
            "0x8faa70878671ccd212d20771b795c50af8fd3ff6cf27f4bde57e5d4de0aeb673"
          ],
          "data": "0x0000000000000000000000000000000000000000000000000000000000000060000000000000000000000000000000000000000000000000000000000000000000000000000000000000000000000000000000000000000000000000000001a00000000000000000000000000000000000000000000000000000000000000001000000000000000000000000000000000000000000000000000000000000002000000000000000000000000006c340fb15c7b484f89952a6824f41d8e7f6e6b10000000000000000000000000000000000000000000000000000000000000001000000000000000000000000000000000000000000000000000000000000006000000000000000000000000000000000000000000000000000000000000000046d69fcaf00000000000000000000000000000000000000000000000000000000763191900000000000000000000000000000000000000000000000000000000075151b6300000000000000000000000000000000000000000000000000000000d3c7c2c7000000000000000000000000000000000000000000000000000000000000000000000000000000000000000000000000000000000000000000000000",
          "blockHash": "0x57d48e9f5d886e0165d50d44f4cf62a45ca3071e4a592b33f48aa3967e491ef5",
          "blockNumber": "0x1755ecc",
          "transactionHash": "0xe58b05d798eef34ea72e654af9d05cc9110ab11784fce3b465dd83fd6f440a0e",
          "transactionIndex": "0x3a",
          "logIndex": "0x10a",
          "removed": false
        }
      ],
      "logsBloom": "0x00000000000000000000000000000000000000000000000000000000000000000000000000000000000000000000000000000000000000000000000000000000000000000000000000000000000000000000000001000000000800000000000000000001000000000000000000000000000000000000000000000000000000000020000000000000000000000000000000000000000000000000020000000000000000000000000000000000000000000000000000000000000000000000100000000000000000000000000000000000000000000000000000000000000000000000000000000000000000000000000000000000000000000000000000000000",
      "type": "0x2",
      "transactionHash": "0xe58b05d798eef34ea72e654af9d05cc9110ab11784fce3b465dd83fd6f440a0e",
      "transactionIndex": "0x3a",
      "blockHash": "0x57d48e9f5d886e0165d50d44f4cf62a45ca3071e4a592b33f48aa3967e491ef5",
      "blockNumber": "0x1755ecc",
      "gasUsed": "0x2606d",
      "effectiveGasPrice": "0x190ad",
      "from": "0xa748409456180ccb70FA34e8ee276297B9A2a1cC",
      "to": "0xa2fA83BF540697111420ef9EA3A419D93c8ae44E",
      "contractAddress": null,
      "l1BaseFeeScalar": "0x44d",
      "l1BlobBaseFee": "0xf44",
      "l1BlobBaseFeeScalar": "0xa118b",
      "l1Fee": "0x2ae9125",
      "l1GasPrice": "0x1007ab9",
      "l1GasUsed": "0x96a"
    }
  ],
  "libraries": [],
  "pending": [],
  "returns": {},
  "timestamp": 1744706707,
  "chain": 84532,
  "commit": "fbbca48"
}